:020000040000FA
:04000000FEEFFFF020
:020000040001F9
:04FDD000120012000B
:10FDD500063F4F5B6D66077D6F7F7C775E39717976
:10FDE500000090954D000E0401006F000EC66E00D8
:10FDF5000EBE6E000E086F000EC76E000EBF6E12AF
:10FE050000000E1E6E000E1F6E000E206E000E21ED
:10FE15006E000E1A6E000E1B6E000E1C6E000E1D7F
:10FE25006E120003011A9F231C256E241C266E26C4
:10FE3500C525F5266A2550196F2350FF0A186FB19D
:10FE45009E1A8F12000001AF9DB387B2A72DEFFF59
:10FE5500F02FEFFFF028EFFFF0800EBE6EDD0E03F2
:10FE6500011B6FC00E1A6F1200D50EF66EFD0EF750
:10FE75006E010EF86E01EE01F110EE15F00900F5B8
:10FE8500C4EEF4E550E150FAE101EE16F10D0EEE87
:10FE95006AE806FDE1000150EFFFF0198EE8ECFE7F
:10FEA500F003ECFFF0F5ECFEF025ECFFF09DECFF28
:10FEB500F0E9ECFEF0000E246E010E236E14ECFF4B
:10FEC500F0010E286E050E0001436F000E446F38D9
:10FED5000E456FF80E4117408140B174EFFFF07683
:10FEE500EFFFF06FEFFFF0600018F127F5BE50400F
:10FEF5000B2724BE6E92EFFFF0050E2818D8A486B6
:10FF0500EFFFF088EFFFF08EEFFFF0010E286E0196
:10FF15000EBF6E92EFFFF0BF50BF24BF6E282AB10F
:10FF2500AE97EFFFF099EFFFF07FEFFFF059EFFF8E
:10FF3500F0FEEFFFF0900E1318D8A4A4EFFFF0A683
:10FF4500EFFFF0F9EFFFF014500F0B050AD8A4AE40
:10FF5500EFFFF0B0EFFFF0F4EFFFF0950E1418D8B7
:10FF6500A4B7EFFFF0B9EFFFF0EEEFFFF015500784
:10FF75000B050AD8A4C1EFFFF0C3EFFFF0E9EFFFCF
:10FF8500F0800E1564C9EFFFF0CBEFFFF0DCEFFF5B
:10FF9500F0CD0E1518D8A4D2EFFFF0D4EFFFF0D8AE
:10FFA500EFFFF0080E156EEAEFFFF0080E1526EAD2
:10FFB500EFFFF04D0E1518D8A4E3EFFFF0E5EFFFC6
:10FFC500F0D8EFFFF0800E156EEAEFFFF0152A006E
:10FFD5000E146EF5EFFFF01450F00B100F146EF5C4
:10FFE500EFFFF0142A000E136EFBEFFFF0100E1357
:0BFFF50026400EBE1A120037EFFFF08E
:020000040020DA
:10000000FF0FFF0FFF0FFF0FFF0FFF0FFF0FFF0F80
:10001000FF0FFF0FFF0FFF0FFF0FFF0FFF0FFF0F70
:020000040030CA
:0A0000008CFEFFFC9FFFFFFFFFFFD7
:020000040038C2
:100000003F069B8FA6ADBD07BFAFB7BCBC39B9B12A
:00000001FF
