:020000040000FA
:0400000081EF00F09C
:1000080040004000400040004000400040004000E8
:1000180040004000400040004000400040004000D8
:1000280040004000400040004000400040004000C8
:10003800BF004000400040004000400040001B015D
:1000480040004000400040004000400040004000A8
:100058004000400040004000400040004000400098
:100068004000400040004000400040004000400088
:100078004000400040004000400040004000400078
:100088004000400040004000400040004000400068
:100098004000400040004000400040004000400058
:1000A8004000400040004000400040004000400048
:1000B8004000400040004000400040004000400038
:1000C8004000400040004000400040004000400028
:1000D8004000400040004000400040004000400018
:1000E8004000400040004000400040004000400008
:1000F8004000400040004000FF00A5EF01F0288EBE
:100108004FEC02F025EC02F0EEEC01F0DAEC01F035
:1001180045EC02F021EE13F111EE40F10F0EDBC4B5
:10012800E3F4E806FCE214EC02F0C5EC01F03C282C
:10013800D8A4A1EF00F0A3EF00F0A7EF00F0000EA5
:100148003C6E1BEC01F03750D8A4ADEF00F0AFEFD8
:1001580000F016EF01F0400ECE16000E376E385044
:10016800D8A4B9EF00F0BBEF00F0CDEF00F0010E1E
:10017800BF6E3B380F0B0F0B3E6E3F6A400E3E249E
:10018800D96E050E3F20DA6EDF50506E382A10EF18
:1001980001F03804D8A4D3EF00F0D5EF00F0E5EF74
:1001A80000F0020EBF6E5250070B3E6E3F6A400EC3
:1001B8003E24D96E050E3F20DA6EDF50506ECAEF2E
:1001C80000F0020E3818D8A4ECEF00F0EEEF00F0C3
:1001D80000EF01F0040EBF6E5238E8461F0B0F0BFC
:1001E8003E6E3F6A400E3E24D96E050E3F20DA6E01
:1001F800DF50506ECAEF00F0080EBF6E5244010B7C
:100208003E6E3F6A400E3E24D96E050E3F20DA6EE0
:10021800DF50506E000E386ECE50400B5024CE6E1C
:100228009BEF00F0372A9BEF00F081EF00F0900E73
:100238003A18D8A422EF01F024EF01F079EF01F089
:100248003B500F0B050AD8A42CEF01F02EEF01F05C
:1002580074EF01F0950E3B18D8A435EF01F037EF95
:1002680001F06EEF01F05250070B050AD8A43FEFDA
:1002780001F041EF01F069EF01F0800E526447EFA1
:1002880001F049EF01F05AEF01F0CD0E5218D8A451
:1002980050EF01F052EF01F056EF01F0080E526EE8
:1002A80065EF01F0080E522665EF01F04D0E521869
:1002B800D8A461EF01F063EF01F056EF01F0800E72
:1002C800526EF80E52166AEF01F0522A000E3B6E7B
:1002D80075EF01F03B50F00B100F3B6E75EF01F01E
:1002E8003B2A000E3A6E7BEF01F0100E3A26400EC4
:1002F800BE1A1200B19031503210D8A486EF01F026
:1003080088EF01F08FEF01F0600000F252F5314AFA
:10031800322AA4EF01F031043210D8A496EF01F08C
:1003280098EF01F09DEF01F0600000F23BF58BEFD4
:1003380001F0600000F23AF5000E326E000E316EE8
:100348001100040EF66E040EF76E000EF86E01EE44
:1003580001F110EE24F00900F5C4EEF4E550E15087
:10036800FAE101EE25F1180EEE6AE806FDE1040156
:10037800080E5D6F000E5E6F000E5F6F000183EF69
:1003880000F00001AF9DB387B2A7CDEF01F0CFEF2A
:1003980001F0C8EF01F0DE0E03011B6F900E1A6F1B
:1003A8001A9F1969FE0E186F1A8F12000001849F98
:1003B800140E02016A6F150E6B6F160E6C6F320EFB
:1003C800186F000E0001846F040E856F010E866F92
:1003D800848F1200000E0401006F000EC66E000E1E
:1003E800BE6E000E086F000EC76E000EBF6E000EC8
:1003F800106F700EC86E000EC06E1200063F4F5B85
:100408006D66077D6F7F7C775E39717900003F06E6
:100418009B8FA6ADBD07BFAFB7BCBC39B9B110053E
:10042800400EBE6E430E526E000E3B6E000E3A6ECC
:100438002B0E516E000E356E000E346E000E336EAC
:100448001200000E2D6E000E2E6E000E2F6E000E86
:10045800306E000E296E000E2A6E000E2B6E000EF6
:100468002C6E1200610060F33DF5B19E03011A9FE6
:100478001969FE0E186F1A8F3C686100F4F4D8F4FD
:100488001100D68A0301659FB19EB190A18EA1800B
:08049800D68ED68C1200120072
:020000040020DA
:10000000FF0FFF0FFF0FFF0FFF0FFF0FFF0FFF0F80
:10001000FF0FFF0FFF0FFF0FFF0FFF0FFF0FFF0F70
:020000040030CA
:0A0000008CFEFFFC9FFFFFFFFFFFD7
:00000001FF
