:020000040000FA
:04000000FEEFFFF020
:020000040001F9
:10FCD20012001200063F4F5B6D66077D6F7F7C77D7
:10FCE2005E3971790000000E0401006F000EC66ECD
:10FCF200000EBE6E000E086F000EC76E000EBF6EC5
:10FD02001200000E0D6E000E0E6E000E0F6E000E33
:10FD1200106E000E096E000E0A6E000E0B6E000EC3
:10FD22000C6E120003011A9F2D1C2F6E2E1C306EBA
:10FD320030C52FF5306A2F50196F2D50FF0A186FFA
:10FD4200B19E1A8F1200D60EF66EFC0EF76E010EE1
:10FD5200F86E01EE1BF110EE12F00900F5C4EEF49C
:10FD6200E550E150FAE101EE01F11A0EEE6AE80601
:10FD7200FDE100015BEFFFF00001AF9DB387B2A789
:10FD8200C5EFFEF0C7EFFEF0C0EFFEF0800EBE6ED4
:10FD9200D50E03011B6FC00E1A6F000E146E000EFB
:10FDA200156E100E166E2B0E116E000E126E000ED8
:10FDB200136E000E176E1200045003100AE10128A0
:10FDC200010E0258D8A0E8EFFEF0EAEFFEF052EF83
:10FDD200FFF0900E1618D8A4F1EFFEF0F3EFFEF04C
:10FDE20046EFFFF015500F0B050AD8A4FBEFFEF00B
:10FDF200FDEFFEF041EFFFF0950E1518D8A404EFC9
:10FE0200FFF006EFFFF03BEFFFF01450070B050A7F
:10FE1200D8A40EEFFFF010EFFFF036EFFFF0800EE8
:10FE2200146416EFFFF018EFFFF029EFFFF0CD0E8C
:10FE32001418D8A41FEFFFF021EFFFF025EFFFF019
:10FE4200080E146E37EFFFF0080E142637EFFFF09E
:10FE52004D0E1418D8A430EFFFF032EFFFF025EF6B
:10FE6200FFF0800E146E37EFFFF0142A000E156EAD
:10FE720042EFFFF01550F00B100F156E42EFFFF03E
:10FE8200152A000E166E48EFFFF0100E1626000E11
:10FE9200016E000E026E000E036E000E046E58EF2D
:10FEA200FFF0010E0126000E022203220422400E60
:10FEB200BE1A1200088E69ECFEF082ECFEF074ECC1
:10FEC200FEF0BDECFEF0DDECFEF06AECFEF0000EA2
:10FED2002E6E010E2D6E93ECFEF0B1AE73EFFFF0BD
:10FEE20075EFFFF06EEFFFF01A50D8A47BEFFFF032
:10FEF2007DEFFFF092EFFFF016380F0B0F0B316E14
:10FF0200326A336A000E31240001436F000E322040
:10FF1200446F380E3320456F010EBF6E1A2AE8EF88
:10FF2200FFF01A04D8A498EFFFF09AEFFFF0ADEFBC
:10FF3200FFF015500F0B316E326A336A000E312416
:10FF42000001436F000E3220446F380E3320456F9C
:10FF5200020EBF6E8FEFFFF0020E1A18D8A4B4EF94
:10FF6200FFF0B6EFFFF0CAEFFFF015380F0B0F0BE3
:10FF7200316E326A336A000E31240001436F000E83
:10FF82003220446F380E3320456F040EBF6E8FEF60
:10FF9200FFF0030E1A18D8A4D1EFFFF0D3EFFFF051
:10FFA200E8EFFFF01450070B316E326A336A000E2D
:10FFB20031240001436F000E3220446F380E33208B
:10FFC200456F080EBF6E000E1A6EE8EFFFF0F80ED6
:10FFD20000014117408140B1F1EFFFF0F3EFFFF074
:10FFE200ECEFFFF0600018F134F5BE50400B342402
:0EFFF200BE6E64EFFFF0FEEFFFF0A4EFFEF036
:020000040020DA
:10000000FF0FFF0FFF0FFF0FFF0FFF0FFF0FFF0F80
:10001000FF0FFF0FFF0FFF0FFF0FFF0FFF0FFF0F70
:020000040030CA
:0A0000008CFEFFFC9FFFFFFFFFFFD7
:020000040038C2
:100000003F069B8FA6ADBD07BFAFB7BCBC39B9B12A
:00000001FF
