:020000040000FA
:0400000081EF00F09C
:1000080040004000400040004000400040004000E8
:1000180040004000400040004000400040004000D8
:1000280040004000400040004000400040004000C8
:100038004000400040004000400040004000F20006
:1000480040004000400040004000400040004000A8
:100058004000400040004000400040004000400098
:100068004000400040004000400040004000400088
:100078004000400040004000400040004000400078
:100088004000400040004000400040004000400068
:100098004000400040004000400040004000400058
:1000A8004000400040004000400040004000400048
:1000B8004000400040004000400040004000400038
:1000C8004000400040004000400040004000400028
:1000D8004000400040004000400040004000400018
:1000E8004000400040004000400040004000400008
:1000F8004000400040004000FF007CEF01F0268EE9
:1001080009EC02F0D3EC01F0F3EC01F001EC02F0A1
:1001180021EE13F111EE3DF10F0EDBC4E3F4E80616
:10012800FCE2C2EC01F09CEC01F03928D8A49FEF66
:1001380000F0A1EF00F0A5EF00F0000E396E19EC09
:1001480001F0960E3718D8A4ACEF00F0AEEF00F02F
:1001580014EF01F0400ECE16000E376E3850D8A4BA
:10016800B8EF00F0BAEF00F0CCEF00F0010EBF6E70
:1001780034380F0B0F0B3B6E3C6A3D0E3B24D96E97
:10018800050E3C20DA6EDF504D6E382A0EEF01F076
:100198003804D8A4D2EF00F0D4EF00F0E4EF00F078
:1001A800020EBF6E33500F0B3B6E3C6A3D0E3B2474
:1001B800D96E050E3C20DA6EDF504D6EC9EF00F0A7
:1001C800020E3818D8A4EBEF00F0EDEF00F0FEEFC8
:1001D80000F0040EBF6E33380F0B0F0B3B6E3C6AFA
:1001E8003D0E3B24D96E050E3C20DA6EDF504D6E75
:1001F800C9EF00F0080EBF6E3250070B3B6E3C6A29
:100208003D0E3B24D96E050E3C20DA6EDF504D6E54
:10021800000E386ECE50400B4D24CE6E99EF00F094
:10022800372A99EF00F081EF00F0900E3418D8A427
:1002380020EF01F022EF01F077EF01F033500F0BC0
:10024800050AD8A42AEF01F02CEF01F072EF01F0B3
:10025800950E3318D8A433EF01F035EF01F06CEFA9
:1002680001F03250070B050AD8A43DEF01F03FEF2B
:1002780001F067EF01F0800E326445EF01F047EFBF
:1002880001F058EF01F0CD0E3218D8A44EEF01F06E
:1002980050EF01F054EF01F0080E326E63EF01F0F9
:1002A800080E322663EF01F04D0E3218D8A45FEF26
:1002B80001F061EF01F054EF01F0800E326EF80E9C
:1002C800321668EF01F0322A000E336E73EF01F038
:1002D8003350F00B100F336E73EF01F0332A000E1A
:1002E800346E79EF01F0100E3426400EBE1A12005B
:1002F800620EF66E030EF76E000EF86E01EE01F157
:1003080010EE22F00900F5C4EEF4E550E150FAE1F0
:1003180001EE23F1170EEE6AE806FDE10401080E6E
:100328005D6F000E5E6F000E5F6F000183EF00F0DF
:100338000001AF9DB387B2A7A4EF01F0A6EF01F0CB
:100348009FEF01F0DE0E03011B6F900E1A6F1A9FCC
:100358001969FE0E186F1A8F1200063F4F5B6D6603
:10036800077D6F7F7C775E39717900003F069B8F30
:10037800A6ADBD07BFAFB7BCBC39B9B1400EBE6EA4
:100388000D0E326E950E336E300E346E2B0E2F6EB0
:10039800000E306E000E316E000E356E1200000E2B
:1003A8002B6E000E2C6E000E2D6E000E2E6E000EA3
:1003B800276E000E286E000E296E000E2A6E12009F
:1003C800610060F33AF5B19E03011A9F1969FE0EA8
:1003D800186F1A8F39686100E8F4D8F41100000E1C
:1003E8000401006F000EC66E000EBE6E000E086F90
:1003F800000EC76E000EBF6E1200D68A0301659FFD
:0C040800B19EA18ED68ED68C1200120080
:020000040020DA
:10000000FF0FFF0FFF0FFF0FFF0FFF0FFF0FFF0F80
:10001000FF0FFF0FFF0FFF0FFF0FFF0FFF0FFF0F70
:020000040030CA
:0A0000008CFEFFFC9FFFFFFFFFFFD7
:00000001FF
