:020000040000FA
:0400000081EF00F09C
:1000080040004000400040004000400040004000E8
:1000180040004000400040004000400040004000D8
:1000280040004000400040004000400040004000C8
:100038004000400040004000400040004000F10007
:1000480040004000400040004000400040004000A8
:100058004000400040004000400040004000400098
:100068004000400040004000400040004000400088
:100078004000400040004000400040004000400078
:100088004000400040004000400040004000400068
:100098004000400040004000400040004000400058
:1000A8004000400040004000400040004000400048
:1000B8004000400040004000400040004000400038
:1000C8004000400040004000400040004000400028
:1000D8004000400040004000400040004000400018
:1000E8004000400040004000400040004000400008
:1000F8004000400040004000FF007AEF01F0268EEB
:1001080007EC02F0D1EC01F0F1EC01F0FFEC01F0AA
:1001180021EE13F111EE3DF10F0EDBC4E3F4E80616
:10012800FCE2C0EC01F09AEC01F03928D8A49FEF6A
:1001380000F0A1EF00F0A5EF00F0000E396E17EC0B
:1001480001F0960E3718D8A4ACEF00F0AEEF00F02F
:1001580012EF01F0000E376E3850D8A4B6EF00F059
:10016800B8EF00F0CAEF00F0010EBF6E34380F0B85
:100178000F0B3B6E3C6A3D0E3B24D96E050E3C20AE
:10018800DA6EDF504D6E382A0CEF01F03804D8A42F
:10019800D0EF00F0D2EF00F0E2EF00F0020EBF6EF9
:1001A80033500F0B3B6E3C6A3D0E3B24D96E050E57
:1001B8003C20DA6EDF504D6EC7EF00F0020E3818A3
:1001C800D8A4E9EF00F0EBEF00F0FCEF00F0040E2C
:1001D800BF6E33380F0B0F0B3B6E3C6A3D0E3B2452
:1001E800D96E050E3C20DA6EDF504D6EC7EF00F079
:1001F800080EBF6E3250070B3B6E3C6A3D0E3B2427
:10020800D96E050E3C20DA6EDF504D6E000E386E4A
:10021800CE50400B4D24CE6E99EF00F0372A99EF5F
:1002280000F081EF00F0900E3418D8A41EEF01F012
:1002380020EF01F075EF01F033500F0B050AD8A439
:1002480028EF01F02AEF01F070EF01F0950E331856
:10025800D8A431EF01F033EF01F06AEF01F032502A
:10026800070B050AD8A43BEF01F03DEF01F065EF5D
:1002780001F0800E326443EF01F045EF01F056EFD4
:1002880001F0CD0E3218D8A44CEF01F04EEF01F07A
:1002980052EF01F0080E326E61EF01F0080E3226BF
:1002A80061EF01F04D0E3218D8A45DEF01F05FEF59
:1002B80001F052EF01F0800E326EF80E321666EF42
:1002C80001F0322A000E336E71EF01F03350F00B5B
:1002D800100F336E71EF01F0332A000E346E77EF92
:1002E80001F0100E3426400EBE1A12005E0EF66E95
:1002F800030EF76E000EF86E01EE01F110EE22F01B
:100308000900F5C4EEF4E550E150FAE101EE23F1FD
:10031800170EEE6AE806FDE10401080E5D6F000E97
:100328005E6F000E5F6F000183EF00F00001AF9D6C
:10033800B387B2A7A2EF01F0A4EF01F09DEF01F09F
:10034800DE0E03011B6F900E1A6F1A9F1969FE0EBD
:10035800186F1A8F1200063F4F5B6D66077D6F7F1F
:100368007C775E39717900003F069B8FA6ADBD078B
:10037800BFAFB7BCBC39B9B1400EBE6E0D0E326E00
:10038800950E336E300E346E2B0E2F6E000E306EBF
:10039800000E316E000E356E1200000E2B6E000E30
:1003A8002C6E000E2D6E000E2E6E000E276E000EA7
:1003B800286E000E296E000E2A6E1200610060F38E
:1003C8003AF5B19E03011A9F1969FE0E186F1A8F2C
:1003D80039686100E8F4D8F41100000E0401006FD8
:1003E800000EC66E000EBE6E000E086F000EC76EC1
:1003F800000EBF6E1200D68A0301659FB19EA18EC2
:08040800D68ED68C1200120002
:020000040020DA
:10000000FF0FFF0FFF0FFF0FFF0FFF0FFF0FFF0F80
:10001000FF0FFF0FFF0FFF0FFF0FFF0FFF0FFF0F70
:020000040030CA
:0A0000008CFEFFFC9FFFFFFFFFFFD7
:00000001FF
