:020000040000FA
:0400000081EF00F09C
:1000080040004000400040004000400040004000E8
:1000180040004000400040004000400040004000D8
:1000280040004000400040004000400040004000C8
:100038004000400040004000400040004000F30005
:1000480040004000400040004000400040004000A8
:100058004000400040004000400040004000400098
:100068004000400040004000400040004000400088
:100078004000400040004000400040004000400078
:100088004000400040004000400040004000400068
:100098004000400040004000400040004000400058
:1000A8004000400040004000400040004000400048
:1000B8004000400040004000400040004000400038
:1000C8004000400040004000400040004000400028
:1000D8004000400040004000400040004000400018
:1000E8004000400040004000400040004000400008
:1000F8004000400040004000FF007DEF01F03A8ED4
:100108000BEC02F0D4EC01F0F5EC01F003EC02F09A
:1001180021EE13F111EE26F10F0EDBC4E3F4E8062D
:10012800FCE2C3EC01F09DEC01F04928D8A49FEF54
:1001380000F0A1EF00F0A5EF00F0000E496E1AECF8
:1001480001F0960E4718D8A4ACEF00F0AEEF00F01F
:1001580015EF01F0400ECE16000E476E4850D8A499
:10016800B8EF00F0BAEF00F0CCEF00F0010EBF6E70
:100178004D380F0B0F0B246E256A260E2424D96EDA
:10018800050E2520DA6EDF50366E482A0FEF01F093
:100198004804D8A4D2EF00F0D4EF00F0E4EF00F068
:1001A800020EBF6E4C50070B246E256A260E2424BF
:1001B800D96E050E2520DA6EDF50366EC9EF00F0D5
:1001C800020E4818D8A4EBEF00F0EDEF00F0FFEFB7
:1001D80000F0040EBF6E4C38E8461F0B0F0B246E60
:1001E800256A260E2424D96E050E2520DA6EDF50E6
:1001F800366EC9EF00F0080EBF6E4C44010B246E3A
:10020800256A260E2424D96E050E2520DA6EDF50C5
:10021800366E000E486ECE50400B3624CE6E99EFE7
:1002280000F0472A99EF00F081EF00F0900E4B188C
:10023800D8A421EF01F023EF01F078EF01F04D5041
:100248000F0B050AD8A42BEF01F02DEF01F073EF87
:1002580001F0950E4D18D8A434EF01F036EF01F0F7
:100268006DEF01F04C50070B050AD8A43EEF01F0E2
:1002780040EF01F068EF01F0800E4C6446EF01F0AA
:1002880048EF01F059EF01F0CD0E4C18D8A44FEF0C
:1002980001F051EF01F055EF01F0080E4C6E64EFDC
:1002A80001F0080E4C2664EF01F04D0E4C18D8A44E
:1002B80060EF01F062EF01F055EF01F0800E4C6E37
:1002C800F80E4C1669EF01F04C2A000E4D6E74EFD3
:1002D80001F04D50F00B100F4D6E74EF01F04D2AE8
:1002E800000E4B6E7AEF01F0100E4B26400EBE1A30
:1002F8001200640EF66E030EF76E000EF86E01EE35
:1003080001F110EE22F00900F5C4EEF4E550E150D9
:10031800FAE101EE37F1130EEE6AE806FDE1040199
:10032800080E5D6F000E5E6F000E5F6F000183EFB9
:1003380000F00001AF9DB387B2A7A5EF01F0A7EFCA
:1003480001F0A0EF01F0DE0E03011B6F900E1A6F93
:100358001A9F1969FE0E186F1A8F1200063F4F5B1D
:100368006D66077D6F7F7C775E39717900003F0687
:100378009B8FA6ADBD07BFAFB7BCBC39B9B1400EA6
:10038800BE6E4D0E4C6E950E4D6E300E4B6E2B0E96
:100398004A6E000E456E000E446E000E436E12004B
:1003A800000E3F6E000E406E000E416E000E426E53
:1003B800000E3B6E000E3C6E000E3D6E000E3E6E53
:0203C800120021
:1003CC00610060F323F5B19E03011A9F1969FE0EBB
:1003DC00186F1A8F496861008CF4D8F41100000E64
:1003EC000401006F000EC66E000EBE6E000E086F8C
:1003FC00000EC76E000EBF6E1200D68A0301659FF9
:0C040C00B19EA18ED68ED68C120012007C
:020000040020DA
:10000000FF0FFF0FFF0FFF0FFF0FFF0FFF0FFF0F80
:10001000FF0FFF0FFF0FFF0FFF0FFF0FFF0FFF0F70
:020000040030CA
:0A0000008CFEFFFC9FFFFFFFFFFFD7
:00000001FF
