:020000040000FA
:0400000081EF00F09C
:1000080040004000400040004000400040004000E8
:1000180040004000400040004000400040004000D8
:1000280040004000400040004000400040004000C8
:10003800BF00400040004000400040004000250153
:1000480040004000400040004000400040004000A8
:100058004000400040004000400040004000400098
:100068004000400040004000400040004000400088
:100078004000400040004000400040004000400078
:100088004000400040004000400040004000400068
:100098004000400040004000400040004000400058
:1000A8004000400040004000400040004000400048
:1000B8004000400040004000400040004000400038
:1000C8004000400040004000400040004000400028
:1000D8004000400040004000400040004000400018
:1000E8004000400040004000400040004000400008
:1000F8004000400040004000FF00B1EF01F02C8EAE
:1001080063EC02F039EC02F014EC02F0D1EC01F0EF
:1001180059EC02F021EE13F111EE42F10F0EDBC49F
:10012800E3F4E806FCE228EC02F0EBEC01F03E28F0
:10013800D8A4A1EF00F0A3EF00F0A7EF00F0000EA5
:100148003E6E1BEC01F03950D8A4ADEF00F0AFEFD4
:1001580000F016EF01F0400ECE16000E396E3A5040
:10016800D8A4B9EF00F0BBEF00F0CDEF00F0010E1E
:10017800BF6E27380F0B0F0B406E416A420E4024AA
:10018800D96E050E4120DA6EDF50526E3A2A10EF12
:1001980001F03A04D8A4D3EF00F0D5EF00F0E5EF72
:1001A80000F0020EBF6E2850070B406E416A420EE7
:1001B8004024D96E050E4120DA6EDF50526ECAEF28
:1001C80000F0020E3A18D8A4ECEF00F0EEEF00F0C1
:1001D80000EF01F0040EBF6E2838E8461F0B0F0B26
:1001E800406E416A420E4024D96E050E4120DA6EF7
:1001F800DF50526ECAEF00F0080EBF6E2844010BA4
:10020800406E416A420E4024D96E050E4120DA6ED6
:10021800DF50526E000E3A6ECE50400B5224CE6E16
:100228009BEF00F0392A9BEF00F081EF00F0900E71
:100238002618D8A422EF01F024EF01F079EF01F09D
:1002480027500F0B050AD8A42CEF01F02EEF01F070
:1002580074EF01F0950E2718D8A435EF01F037EFA9
:1002680001F06EEF01F02850070B050AD8A43FEF04
:1002780001F041EF01F069EF01F0800E286447EFCB
:1002880001F049EF01F05AEF01F0950E2818D8A4B3
:1002980050EF01F052EF01F056EF01F0080E286E12
:1002A80065EF01F0080E282665EF01F04D0E2818BD
:1002B800D8A461EF01F063EF01F056EF01F0800E72
:1002C800286EF80E28166AEF01F0282A000E276E0D
:1002D80075EF01F02750F00B100F276E75EF01F046
:1002E800272A000E266E7BEF01F0100E2626400E00
:1002F800BE1A1200B190600000F23CF53D50D8A43F
:1003080088EF01F08AEF01F0A0EF01F00F0E3C64D6
:1003180090EF01F092EF01F097EF01F03CC528F55E
:100328003D2AB0EF01F0010E0001816F020E816FCE
:10033800030E816FB0EF01F03D04D8A4A6EF01F0E1
:10034800A8EF01F0ACEF01F03CC527F594EF01F000
:100358003CC526F5000E3D6E1100000EF66E040E2B
:10036800F76E000EF86E01EE01F110EE28F00900AC
:10037800F5C4EEF4E550E150FAE101EE29F1160E6C
:10038800EE6AE806FDE10401080E5D6F000E5E6F7F
:10039800000E5F6F000183EF00F00001849F140ED0
:1003A80002016A6F150E6B6F160E6C6F320E186FA6
:1003B800000E0001846F040E856F030E866F848F14
:1003C800010E816F020E816F030E816F1200000112
:1003D800AF9DB387B2A7F3EF01F0F5EF01F0EEEFB1
:1003E80001F0DE0E03011B6F900E1A6F1A9F196938
:1003F800FE0E186F1A8F1200063F4F5B6D66077D61
:100408006F7F7C775E39717900003F069B8FA6ADC0
:10041800BD07BFAFB7BCBC39B9B110050180959510
:10042800000E0401006F000EC66E000EBE6E000EB8
:10043800086F000EC76E000EBF6E000E106F700EB4
:10044800C86E000EC06E1200400EBE6E950E286E6D
:10045800950E276E800E266E2B0E536E000E376E8D
:10046800000E366E000E356E1200000E316E000E54
:10047800326E000E336E000E346E000E2D6E000EBE
:100488002E6E000E2F6E000E306E1200610060F3AB
:100498003FF5B19E03011A9F1969FE0E186F1A8F56
:1004A8003E686100FCF4D8F41100D68A0301659F08
:1004B800B19EB190A18EA180D68ED68C120012006A
:020000040020DA
:10000000FF0FFF0FFF0FFF0FFF0FFF0FFF0FFF0F80
:10001000FF0FFF0FFF0FFF0FFF0FFF0FFF0FFF0F70
:020000040030CA
:0A0000008CFEFFFC9FFFFFFFFFFFD7
:00000001FF
