:020000040000FA
:0400000081EF00F09C
:1000080040004000400040004000400040004000E8
:1000180040004000400040004000400040004000D8
:1000280040004000400040004000400040004000C8
:100038004000400040004000400040004000F70001
:1000480040004000400040004000400040004000A8
:100058004000400040004000400040004000400098
:100068004000400040004000400040004000400088
:100078004000400040004000400040004000400078
:100088004000400040004000400040004000400068
:100098004000400040004000400040004000400058
:1000A8004000400040004000400040004000400048
:1000B8004000400040004000400040004000400038
:1000C8004000400040004000400040004000400028
:1000D8004000400040004000400040004000400018
:1000E8004000400040004000400040004000400008
:1000F8004000400040004000FF0096EF01F0048EF1
:100108001CEC02F0DCEC01F0FDEC01F014EC02F068
:10011800CBEC01F0B6EC01F01728D8A496EF00F06C
:1001280098EF00F09CEF00F0000E176E33EC01F032
:10013800640E1518D8A4A3EF00F0A5EF00F02EEF79
:1001480001F0000E156E1650D8A4ADEF00F0AFEF19
:1001580000F0C4EF00F012380F0B0F0B2B6E2C6A57
:100168002D6A000E2B240001436F000E2C20446FD3
:10017800380E2D20456F010EBF6E162A1AEF01F0BA
:100188001604D8A4CAEF00F0CCEF00F0DFEF00F0BF
:1001980011500F0B2B6E2C6A2D6A000E2B240001B8
:1001A800436F000E2C20446F380E2D20456F020E31
:1001B800BF6EC1EF00F0020E1618D8A4E6EF00F0EB
:1001C800E8EF00F0FCEF00F011380F0B0F0B2B6E6F
:1001D8002C6A2D6A000E2B240001436F000E2C2080
:1001E800446F380E2D20456F040EBF6EC1EF00F02E
:1001F800030E1618D8A403EF01F005EF01F01AEF6B
:1002080001F01050070B2B6E2C6A2D6A000E2B2460
:100218000001436F000E2C20446F380E2D20456FCF
:10022800080EBF6E000E166E1AEF01F0F80E0001F0
:100238004117408140B123EF01F025EF01F01EEF97
:1002480001F0600018F12EF5BE50400B2E24BE6E52
:1002580090EF00F0152A90EF00F081EF00F0900E7B
:100268001218D8A43AEF01F03CEF01F091EF01F039
:1002780011500F0B050AD8A444EF01F046EF01F026
:100288008CEF01F0950E1118D8A44DEF01F04FEF47
:1002980001F086EF01F01050070B050AD8A457EFBC
:1002A80001F059EF01F081EF01F0800E10645FEF6B
:1002B80001F061EF01F072EF01F0CD0E1018D8A433
:1002C80068EF01F06AEF01F06EEF01F0080E106EB2
:1002D8007DEF01F0080E10267DEF01F04D0E10188D
:1002E800D8A479EF01F07BEF01F06EEF01F0800EFA
:1002F800106EF80E101682EF01F0102A000E116E23
:100308008DEF01F01150F00B100F116E8DEF01F011
:10031800112A000E126E93EF01F0100E1226400EF5
:10032800BE1A1200160EF66E040EF76E000EF86E68
:1003380001EE18F110EE12F00900F5C4EEF4E550E4
:10034800E150FAE101EE01F1170EEE6AE806FDE16F
:100358000401080E5D6F000E5E6F000E5F6F0001F6
:1003680083EF00F00001AF9DB387B2A7BEEF01F0A5
:10037800C0EF01F0B9EF01F0DF0E03011B6F900E23
:100388001A6F1A9F1969FE0E186F1A8F1200400E05
:10039800BE6E0D0E106E950E116E300E126E2B0E77
:1003A8000D6E000E0E6E000E0F6E000E136E120014
:1003B800000E096E000E0A6E000E0B6E000E0C6E1B
:1003C800000E056E000E066E000E076E000E086E1B
:0203D800120011
:1003DC00610060F32AF5B19E03011A9F1969FE0EA4
:1003EC00186F1A8F17686100A8F4D8F41100000E6A
:1003FC000401006F000EC66E000EBE6E000E086F7C
:10040C00000EC76E000EBF6E1200063F4F5B6D668E
:10041C00077D6F7F7C775E3971790000D68A030186
:0E042C00659FB19EA18ED68ED68C1200120056
:020000040020DA
:10000000FF0FFF0FFF0FFF0FFF0FFF0FFF0FFF0F80
:10001000FF0FFF0FFF0FFF0FFF0FFF0FFF0FFF0F70
:020000040030CA
:0A0000008CFEFFFC9FFFFFFFFFFFD7
:020000040038C2
:100000003F069B8FA6ADBD07BFAFB7BCBC39B9B12A
:00000001FF
