:020000040000FA
:04000000FEEFFFF020
:020000040001F9
:10FCCE0012001200063F4F5B6D66077D6F7F7C77DB
:10FCDE005E3971790000000E0401006F000EC66ED1
:10FCEE00000EBE6E000E086F000EC76E000EBF6EC9
:10FCFE001200000E0D6E000E0E6E000E0F6E000E38
:10FD0E00106E000E096E000E0A6E000E0B6E000EC7
:10FD1E000C6E120003011A9F2D1C2F6E2E1C306EBE
:10FD2E0030C52FF5306A2F50196F2D50FF0A186FFE
:10FD3E00B19E1A8F1200D20EF66EFC0EF76E010EE9
:10FD4E00F86E01EE1BF110EE12F00900F5C4EEF4A0
:10FD5E00E550E150FAE101EE01F11A0EEE6AE80605
:10FD6E00FDE100015BEFFFF00001AF9DB387B2A78D
:10FD7E00C3EFFEF0C5EFFEF0BEEFFEF0400EBE6E1E
:10FD8E00D50E03011B6FC00E1A6F0D0E146E950E5D
:10FD9E00156E300E166E2B0E116E000E126E000EBC
:10FDAE00136E000E176E1200045003100AE10128A4
:10FDBE00010E0258D8A0E6EFFEF0E8EFFEF052EF8B
:10FDCE00FFF0900E1618D8A4EFEFFEF0F1EFFEF054
:10FDDE0046EFFFF015500F0B050AD8A4F9EFFEF011
:10FDEE00FBEFFEF041EFFFF0950E1518D8A402EFD1
:10FDFE00FFF004EFFFF03BEFFFF01450070B050A86
:10FE0E00D8A40CEFFFF00EEFFFF036EFFFF0800EF0
:10FE1E00146414EFFFF016EFFFF027EFFFF0CD0E96
:10FE2E001418D8A41DEFFFF01FEFFFF023EFFFF023
:10FE3E00080E146E32EFFFF0080E142632EFFFF0AC
:10FE4E004D0E1418D8A42EEFFFF030EFFFF023EF75
:10FE5E00FFF0800E146EF80E141637EFFFF0142A12
:10FE6E00000E156E42EFFFF01550F00B100F156ED1
:10FE7E0042EFFFF0152A000E166E48EFFFF0100E3F
:10FE8E001626000E016E000E026E000E036E000EA0
:10FE9E00046E58EFFFF0010E0126000E022203221F
:10FEAE000422400EBE1A1200088E67ECFEF080ECA3
:10FEBE00FEF072ECFEF0BBECFEF0DBECFEF068EC5C
:10FECE00FEF0000E2E6E010E2D6E91ECFEF0B1AE18
:10FEDE0073EFFFF075EFFFF06EEFFFF01A50D8A43E
:10FEEE007BEFFFF07DEFFFF092EFFFF016380F0B78
:10FEFE000F0B316E326A336A000E31240001436FEC
:10FF0E00000E3220446F380E3320456F010EBF6E47
:10FF1E001A2AE8EFFFF01A04D8A498EFFFF09AEF30
:10FF2E00FFF0ADEFFFF015500F0B316E326A336AF2
:10FF3E00000E31240001436F000E3220446F380E44
:10FF4E003320456F020EBF6E8FEFFFF0020E1A18B0
:10FF5E00D8A4B4EFFFF0B6EFFFF0CAEFFFF01538FC
:10FF6E000F0B0F0B316E326A336A000E3124000113
:10FF7E00436F000E3220446F380E3320456F040E4F
:10FF8E00BF6E8FEFFFF0030E1A18D8A4D1EFFFF05B
:10FF9E00D3EFFFF0E8EFFFF01450070B316E326A2B
:10FFAE00336A000E31240001436F000E3220446F7D
:10FFBE00380E3320456F080EBF6E000E1A6EE8EF36
:10FFCE00FFF0F80E00014117408140B1F1EFFFF054
:10FFDE00F3EFFFF0ECEFFFF0600018F134F5BE50D8
:10FFEE00400B3424BE6E64EFFFF0FEEFFFF0A2EF85
:02FFFE00FEF013
:020000040020DA
:10000000FF0FFF0FFF0FFF0FFF0FFF0FFF0FFF0F80
:10001000FF0FFF0FFF0FFF0FFF0FFF0FFF0FFF0F70
:020000040030CA
:0A0000008CFEFFFC9FFFFFFFFFFFD7
:020000040038C2
:100000003F069B8FA6ADBD07BFAFB7BCBC39B9B12A
:00000001FF
