:020000040000FA
:0400000081EF00F09C
:1000080063014D014D014D0140004D0140004D017E
:100018004D014D014D014D014D014D014D014D0168
:100028004D014000400040004D014D014D014D0182
:1000380060014D014D015801FB004D014D014D017D
:100048004D014D014D014D01400040004D014D0154
:100058004D014D014D0140004D014D014D014D0136
:100068004D014D014D014D014D014D014D014D0118
:100078004D014D014D014D0140004D014D014D0116
:100088004D014D014D014D014D014D014D014D01F8
:100098004D014D014D014D0140004D014000400012
:1000A8004D014D014D014D014D014D014D014D01D8
:1000B8004D014D014D014D014D014D014D014D01C8
:1000C8004D014D014D014D014D014D014D014D01B8
:1000D8004D014D014D014D014D014D014D014D01A8
:1000E80040004D014D014D014000400040004000DE
:1000F8004D014D014D014D01FF009AEF01F03450C3
:10010800D8B489EF00F08BEF00F00FEF01F0465004
:10011800D8A491EF00F093EF00F097EF00F0000EF5
:10012800486E000E476E3150431807E132504418AC
:10013800D8A4A1EF00F0A3EF00F00BEF01F04750B7
:10014800D8B4A9EF00F0ABEF00F0CFEF00F04850C3
:10015800020D010EF324D96E050EF420DA6E61004B
:1001680078F331F5610074F332F54850020D190E39
:10017800F324D96E050EF420DA6E610078F353F596
:10018800610074F354F5D8905334416E5434426E80
:10019800482AE9EF00F00C0E4860D5EF00F0D7EFE1
:1001A80000F0E0EF00F0000E326E320E316E7F0E7E
:1001B800426E4168E9EF00F0000E486E070E326E9D
:1001C800D00E316E7F0E426E416841C54EF542C574
:1001D8004FF54750D8A4F3EF00F0F6EF00F0010E0A
:1001E800F7EF00F0000E506ECCEC01F04750D8B499
:1001F80000EF01F003EF01F0010E04EF01F0000E33
:10020800476E000E446E000E436E17EF01F0434A2E
:10021800442A17EF01F0270E4F6E100E4E6E000E97
:10022800506ECCEC01F034C546F512008083868907
:100238008C8F9295989B9EA2A5A7AAADB0B3B6B98C
:10024800BCBEC1C4C6C9CBCED0D3D5D7DADCDEE0BC
:10025800E2E4E6E8EAEBEDEEF0F1F3F4F5F6F8F9AE
:10026800FAFAFBFCFDFDFEFEFEFFFFFFFFFFFFFFAE
:10027800FEFEFEFDFDFCFBFAFAF9F8F6F5F4F3F1E3
:10028800F0EEEDEBEAE8E6E4E2E0DEDCDAD7D5D33F
:10029800D0CECBC9C6C4C1BEBCB9B6B3B0ADAAA78F
:1002A800A5A29E9B9895928F8C898683807C79766F
:1002B80073706D6A6764615D5A5855524F4C494670
:1002C80043413E3B393634312F2C2A282523211F20
:1002D8001D1B1917151412110F0E0C0B0A0907060E
:1002E80005050403020201010100000000000000EE
:1002F8000101010202030405050607090A0B0C0E99
:100308000F1112141517191B1D1F212325282A2C1C
:100318002F313436393B3E414346494C4F525558AC
:100328005A5D6164676A6D707376797C340EF66E17
:10033800020EF76E000EF86E01EE00F210EE00F1FC
:100348000900F5C4EEF4E550E150FAE1E250F8E1B5
:10035800260EF66E040EF76E000EF86E01EE01F131
:1003680010EE34F00900F5C4EEF4E550E150FAE17E
:1003780001EE35F1180EEE6AE806FDE10401080EFB
:100388005D6F000E5E6F000E5F6F000160EF02F0A0
:1003980003011E91800E4F5CD8A0D5EF01F0D7EF76
:1003A80001F0DAEF01F07F0E4F6E4E684E1C516E71
:1003B8004F1C526E52504A6E51C549F5610028F5DE
:1003C8001DF3610024F51CF34B905050D8B4EFEFA7
:1003D80001F0F1EF01F0F2EF01F04B80B198A18844
:1003E8001E811200610028F51DF3610024F51CF33D
:1003F800000E4524D96EDA6A060EDA22DF500001B3
:100408007D6F040E4526B1984BB00DEF02F00FEF4B
:1004180002F012EF02F0A19803011E911100800072
:1004280080000001000180008000800000010001C0
:10043800800080008000350035001B00240000008B
:100448002600000028002D0035002D002800E803B4
:100458000C01000E3D6E000E3E6E000E3F6E000E4B
:10046800406E000E396E000E3A6E000E3B6E000EA6
:100478003C6E7D0E0301236F010E266FB196F00EC0
:10048800246FA1861200000E0401006F000EC66ED4
:10049800000EBE6E000E086F000EC76E000EBF6E17
:1004A800000E106F700EC86E000EC06EA00E000118
:1004B8007F6F000E7D6F12004C8EC8EC02F047EC87
:1004C80002F078EC02F0B9EC02F02DEC02F08CECC2
:1004D80002F04C9E83EC00F0BE9EA7EC02F0BE8EAC
:1004E8006EEF02F081EF00F00001849F140E02010C
:1004F8006A6F150E6B6F160E6C6F320E186F000E4A
:100508000001846F040E856F010E866F848F1200C0
:10051800C00EBE16900E03011A6F540E1B6F000E0C
:100528001F6F010E216F310E1E6F1200610060F304
:100538004DF5010E3526000E36223722382261008D
:1005480034F5D8F411004C8C4CBCADEF02F0AFEF91
:1005580002F0A8EF02F01200B1964C9C010E3D2665
:10056800000E3E223F2240221100D68AD68ED68C1B
:06057800B190A180120009
:0A058000B190600000F234F51100A4
:06058C00AE901100120008
:020000040020DA
:10000000FF0FFF0FFF0FFF0FFF0FFF0FFF0FFF0F80
:10001000FF0FFF0FFF0FFF0FFF0FFF0FFF0FFF0F70
:020000040030CA
:0A0000008CFEFFFC9FFFFFFFFFFFD7
:00000001FF
